:100000000C9461000C947E000C947E000C947E0095
:100010000C947E000C947E000C947E000C947E0068
:100020000C947E000C947E000C947E000C947E0058
:100030000C947E000C947E000C947E000C947E0048
:100040000C94A0010C947E000C9485020C94610227
:100050000C94EA010C947E000C947E000C947E00BB
:100060000C947E000C947E00000000002400270009
:100070002A0000000000250028002B0000000000DE
:1000800023002600290004040404040404040202DA
:100090000202020203030303030301020408102007
:1000A0004080010204081020010204081020000012
:1000B0000008000201000003040700000000000027
:1000C000000011241FBECFEFD8E0DEBFCDBF11E08E
:1000D000A0E0B1E0ECE9FCE002C005900D92A43094
:1000E000B107D9F723E0A4E0B1E001C01D92AE3121
:1000F000B207E1F70E9403030C944C060C94000035
:10010000833081F028F4813099F08230A9F008958D
:100110008730A9F08830C9F08430B1F48091800034
:100120008F7D03C0809180008F7780938000089539
:1001300084B58F7784BD089584B58F7DFBCF809182
:10014000B0008F778093B00008958091B0008F7DCC
:10015000F9CFCF93DF93282F30E0F901E255FF4F1D
:100160008491F901E656FF4FD491F901EA57FF4F08
:10017000C491CC23A1F081110E948000EC2FF0E00B
:10018000EE0FFF1FE458FF4FA591B491EC91ED23C2
:1001900081E090E009F480E0DF91CF91089580E064
:1001A00090E0FACF1F93CF93DF93282F30E0F9012F
:1001B000E255FF4F8491F901E656FF4FD491F901C2
:1001C000EA57FF4FC491CC23A9F0162F81110E944A
:1001D0008000EC2FF0E0EE0FFF1FEE58FF4FA591CF
:1001E000B4918FB7F894EC91111108C0D095DE232B
:1001F000DC938FBFDF91CF911F910895DE2BF8CF55
:10020000CF93DF9390E0FC01E656FF4F24918A578D
:100210009F4FFC0184918823D1F090E0880F991FB3
:10022000FC01E859FF4FA591B491FC01EE58FF4F36
:10023000C591D491623071F49FB7F8943C91822FAC
:10024000809583238C93E8812E2B28839FBFDF9199
:10025000CF9108958FB7F894EC912E2B2C938FBFEC
:10026000F6CF1F93CF93DF93182FEB0161E00E942D
:100270000001209739F460E0812FDF91CF911F9129
:100280000C94D200CF3FD10511F461E0F5CFE12FFE
:10029000F0E0E255FF4FE491E33031F140F4E1301A
:1002A000B1F0E230E1F0C038D1057CF7E4CFE730BF
:1002B00029F1E83059F1E430B1F780918000806293
:1002C00080938000D0938B00C0938A0004C084B5D3
:1002D000806884BDC7BDDF91CF911F91089584B51B
:1002E000806284BDC8BDF7CF809180008068809314
:1002F0008000D0938900C0938800EDCF8091B0003A
:1003000080688093B000C093B300E5CF8091B000C7
:1003100080628093B000C093B400DDCF8E508064C3
:1003200080937C0080917A00806480937A00809131
:100330007A0086FDFCCF8091780090917900089535
:100340001F920F920FB60F9211242F933F938F930A
:100350009F93AF93BF938091140190911501A09149
:100360001601B09117013091080123E0230F2D37BA
:1003700058F50196A11DB11D209308018093140129
:1003800090931501A0931601B09317018091040179
:1003900090910501A0910601B09107010196A11D60
:1003A000B11D8093040190930501A0930601B093C1
:1003B0000701BF91AF919F918F913F912F910F9026
:1003C0000FBE0F901F90189526E8230F0296A11DCF
:1003D000B11DD2CF1F920F920FB60F9211242F93FF
:1003E0003F938F939F93EF93FF9380910D01909193
:1003F0000E01209112013091130121303105F9F4E1
:100400008F3F9807E1F41092C50089E08093C40003
:1004100088E48093C1008EE28093C2001092C600EF
:1004200010920E0110920D01FF91EF919F918F910B
:100430003F912F910F900FBE0F901F90189500972E
:10044000A1F41092C50083E08093C40088E28093F9
:10045000C1008EE08093C2001092C60081E090E05F
:1004600090930E0180930D01DFCF20910001309118
:1004700001018217930770F49C012F5F3F4F309367
:100480000E0120930D01845E9E4FFC0180818093BC
:10049000C600CACF1092C50083E08093C40088E4F0
:1004A0008093C1008EE08093C200E0910D01F09135
:1004B0000E01E45EFE4F80818093C6008FEF9FEFB8
:1004C000CFCF1F920F920FB60F9211242F933F930D
:1004D0004F935F936F937F938F939F93AF93BF934C
:1004E000EF93FF930E94EA01FF91EF91BF91AF91CB
:1004F0009F918F917F916F915F914F913F912F913C
:100500000F900FBE0F901F9018951F920F920FB66D
:100510000F9211242F938F939F93AF93BF93EF93D9
:10052000FF932091C0008091C60090910F019130FF
:1005300079F482E080930F01FF91EF91BF91AF9129
:100540009F918F912F910F900FBE0F901F90189534
:1005500024FF1FC083E080930F018CE191E0909312
:100560000C0180930B0180910F01853029F7809158
:100570001201909113010397E1F61092C50083E0F8
:100580008093C40080E18093C10086E08093C20024
:10059000D3CF9330F1F4811132C084E080930F0106
:1005A0002FB7F8948091140190911501A091160134
:1005B000B09117012FBF8093180190931901A09358
:1005C0001A01B0931B0180910B0190910C010196CF
:1005D000C6CF943041F6E0910B01F0910C0190816F
:1005E000891380833196F0930C01E0930B01809185
:1005F000090190910A018E179F0708F09DCF85E0B1
:1006000080930F01B0CFCF93DF9300D000D0CDB750
:10061000DEB7789484B5826084BD84B5816084BD82
:1006200085B5826085BD85B5816085BD80916E0090
:10063000816080936E0010928100809181008260C1
:1006400080938100809181008160809381008091FE
:1006500080008160809380008091B10084608093ED
:10066000B1008091B00081608093B00080917A00E9
:10067000846080937A0080917A00826080937A000F
:1006800080917A00816080937A0080917A008068FE
:1006900080937A001092C1001092130110921201FF
:1006A00082E090E0909311018093100181E08093AB
:1006B0000F0110920E0110920D018CE191E09093C8
:1006C0000C0180930B012FB7F89480911401909145
:1006D0001501A0911601B09117012FBF8093180149
:1006E00090931901A0931A01B0931B0180E092E04E
:1006F000909301018093000180910001909101018C
:10070000845E9E4F90930A0180930901ECE1F1E031
:100710008DE193E011928E179F07E1F782E090E060
:1007200090931301809312011092C0002091100148
:10073000298361E0822F0E94000160E089810E948C
:10074000D20080911201909113018130910509F03E
:10075000EEC161E089810E94D20080E290E0909336
:100760000101809300011092C50089E08093C400CC
:1007700088E48093C1008EE28093C2001092C6008C
:1007800061E08BE00E94000161E08AE00E940001CC
:1007900061E089E00E94000161E086E00E940001C2
:1007A00061E085E00E94000161E083E00E940001B9
:1007B00062E08EE00E94000162E08FE00E94000192
:1007C00062E080E10E94000162E081E10E9400019C
:1007D00062E082E10E94000162E083E10E94000188
:1007E00062E084E10E94000162E085E10E94000174
:1007F00084E10E948E018C0185E10E948E019A8322
:1008000089838EE00E94A90020911D03892B09F0A5
:10081000ACC1216020931D038FE00E94A9002091AC
:100820001D03892B09F0A3C1226020931D0380E1E1
:100830000E94A90020911D03892B09F09AC1246010
:1008400020931D0381E10E94A90020911D03892BA3
:1008500009F091C1286020931D0382E10E94A90044
:1008600020911D03892B09F088C1206120931D036D
:1008700083E10E94A90020911D03892B09F07FC10B
:10088000206220931D0380911D03053611050CF095
:1008900078C1806480931D0380911D03A981BA8172
:1008A000A536B1050CF06FC1806880931D0380915F
:1008B0001D03811103C081E080931D03C12CD12C45
:1008C0007601CA9490E0292E90E0392E2FB7F89443
:1008D0008091140190911501A0911601B09117011A
:1008E0002FBF409118015091190160911A01709128
:1008F0001B01841B950BA60BB70B8C3D9540A105E6
:10090000B10508F042C1F0911D032F2F30E03A836A
:1009100029838901045E1E4FF801A681B0E021E021
:100920003FEF4FEF5FEF0E940006A70196010E9484
:10093000E10529013A01FFEF4F0E511C611C711CAA
:1009400040920301F801A781B0E021E03FEF4FEFB3
:100950005FEF0E940006A70196010E94E105490190
:100960005A01FFEF8F0E911CA11CB11C8092020155
:1009700029813A81232B21F481E090E09A838983B5
:10098000A981BA81A45EBE4F6C91862F90E0B0E041
:10099000A0E089839A83AB83BC839C01AD01509511
:1009A0004095309521953F4F4F4F5F4FC301B201A6
:1009B0000E943C06A70196010E94E10569817A81A7
:1009C0008B819C81620F731F841F951F8BE00E9497
:1009D0003101D80111966C91862F90E0B0E0A0E033
:1009E00089839A83AB83BC839C01AD01509540956C
:1009F000309521953F4F4F4F5F4FC301B2010E9489
:100A00003C06A70196010E94E10569817A818B81EC
:100A10009C81620F731F841F951F8AE00E94310121
:100A2000D80112966C91862F90E0B0E0A0E0898307
:100A30009A83AB83BC839C01AD0150954095309562
:100A400021953F4F4F4F5F4FC301B2010E943C06BB
:100A5000A70196010E94E10569817A818B819C81C1
:100A6000620F731F841F951F89E00E943101D80116
:100A700013964C90512C712C612C22273327A901FD
:100A80002419350946095709C501B4010E943C06DD
:100A9000A70196010E94E105CA01B901640D751D07
:100AA000861D971D86E00E943101F8014480512C7B
:100AB000712C612C22273327A901241935094609F5
:100AC0005709C501B4010E943C06A70196010E9486
:100AD000E105CA01B901640D751D861D971D85E0EC
:100AE0000E943101D80115964C90512C712C612C2B
:100AF00022273327A9012419350946095709C501B9
:100B0000B4010E943C06A70196010E94E105CA01BA
:100B1000B901640D751D861D971D83E00E9431018A
:100B20002114310409F4D2CE0E940000CFCE0297E6
:100B300009F026CE8CE191E090930C0180930B019B
:100B400081E080930F011092C50083E08093C40080
:100B500080E98093C10086E08093C2008091C0004C
:100B600087FF0ECE8091C600F9CF2E7F53CE2D7F0A
:100B70005CCE2B7F65CE277F6ECE2F7E77CE2F7DEE
:100B800080CE8F7B87CE8F7790CE6FEF70E08BE03B
:100B90000E94310170E060E08AE00E94310170E063
:100BA00060E089E00E9431016FEF70E086E00E9412
:100BB000310170E060E085E00E94310170E060E0AA
:100BC000ACCF052E97FB1EF400940E94F80557FD4C
:100BD00007D00E940B0607FC03D04EF40C94F805D6
:100BE00050954095309521953F4F4F4F5F4F089559
:100BF00090958095709561957F4F8F4F9F4F089589
:100C00000E942D06A59F900DB49F900DA49F800D6E
:100C1000911D11240895A1E21A2EAA1BBB1BFD01F0
:100C20000DC0AA1FBB1FEE1FFF1FA217B307E407CB
:100C3000F50720F0A21BB30BE40BF50B661F771F23
:100C4000881F991F1A9469F7609570958095909503
:100C50009B01AC01BD01CF010895A29FB001B39FDC
:100C6000C001A39F700D811D1124911DB29F700DB5
:100C7000811D1124911D0895DB018F939F930E9484
:100C80000006BF91AF91A29F800D911DA39F900D73
:0C0C9000B29F900D11240895F894FFCF3E
:040C9C002000FFFF36
:00000001FF
