:020000040000FA
:100000000C9461000C947E000C947E000C947E0095
:100010000C947E000C947E000C947E000C947E0068
:100020000C947E000C947E000C947E000C947E0058
:100030000C947E000C947E000C947E000C947E0048
:100040000C94A0010C947E000C9485020C94610227
:100050000C94EA010C947E000C947E000C947E00BB
:100060000C947E000C947E00000000002400270009
:100070002A0000000000250028002B0000000000DE
:1000800023002600290004040404040404040202DA
:100090000202020203030303030301020408102007
:1000A0004080010204081020010204081020000012
:1000B0000008000201000003040700000000000027
:1000C000000011241FBECFEFD8E0DEBFCDBF11E08E
:1000D000A0E0B1E0E0EEF9E002C005900D92A230A0
:1000E000B107D9F723E0A2E0B1E001C01D92AC3125
:1000F000B207E1F70E9403030C94EE040C94000095
:10010000833081F028F4813099F08230A9F008958D
:100110008730A9F08830C9F08430B1F48091800034
:100120008F7D03C0809180008F7780938000089539
:1001300084B58F7784BD089584B58F7DFBCF809182
:10014000B0008F778093B00008958091B0008F7DCC
:10015000F9CFCF93DF93282F30E0F901E255FF4F1D
:100160008491F901E656FF4FD491F901EA57FF4F08
:10017000C491CC23A1F081110E948000EC2FF0E00B
:10018000EE0FFF1FE458FF4FA591B491EC91ED23C2
:1001900081E090E009F480E0DF91CF91089580E064
:1001A00090E0FACF1F93CF93DF93282F30E0F9012F
:1001B000E255FF4F8491F901E656FF4FD491F901C2
:1001C000EA57FF4FC491CC23A9F0162F81110E944A
:1001D0008000EC2FF0E0EE0FFF1FEE58FF4FA591CF
:1001E000B4918FB7F894EC91111108C0D095DE232B
:1001F000DC938FBFDF91CF911F910895DE2BF8CF55
:10020000CF93DF9390E0FC01E656FF4F24918A578D
:100210009F4FFC0184918823D1F090E0880F991FB3
:10022000FC01E859FF4FA591B491FC01EE58FF4F36
:10023000C591D491623071F49FB7F8943C91822FAC
:10024000809583238C93E8812E2B28839FBFDF9199
:10025000CF9108958FB7F894EC912E2B2C938FBFEC
:10026000F6CF1F93CF93DF93182FEB0161E00E942D
:100270000001209739F460E0812FDF91CF911F9129
:100280000C94D200CF3FD10511F461E0F5CFE12FFE
:10029000F0E0E255FF4FE491E33031F140F4E1301A
:1002A000B1F0E230E1F0C038D1057CF7E4CFE730BF
:1002B00029F1E83059F1E430B1F780918000806293
:1002C00080938000D0938B00C0938A0004C084B5D3
:1002D000806884BDC7BDDF91CF911F91089584B51B
:1002E000806284BDC8BDF7CF809180008068809314
:1002F0008000D0938900C0938800EDCF8091B0003A
:1003000080688093B000C093B300E5CF8091B000C7
:1003100080628093B000C093B400DDCF8E508064C3
:1003200080937C0080917A00806480937A00809131
:100330007A0086FDFCCF8091780090917900089535
:100340001F920F920FB60F9211242F933F938F930A
:100350009F93AF93BF938091120190911301A0914D
:100360001401B09115013091060123E0230F2D37C0
:1003700058F50196A11DB11D20930601809312012D
:1003800090931301A0931401B09315018091020181
:1003900090910301A0910401B09105010196A11D66
:1003A000B11D8093020190930301A0930401B093C7
:1003B0000501BF91AF919F918F913F912F910F9028
:1003C0000FBE0F901F90189526E8230F0296A11DCF
:1003D000B11DD2CF1F920F920FB60F9211242F93FF
:1003E0003F938F939F93EF93FF9380910B01909195
:1003F0000C01209110013091110121303105F9F4E7
:100400008F3F9807E1F41092C50089E08093C40003
:1004100088E48093C1008EE28093C2001092C600EF
:1004200010920C0110920B01FF91EF919F918F910F
:100430003F912F910F900FBE0F901F90189500972E
:10044000A1F41092C50083E08093C40088E28093F9
:10045000C1008EE08093C2001092C60081E090E05F
:1004600090930C0180930B01DFCF2091000130911C
:1004700001018217930770F49C012F5F3F4F309367
:100480000C0120930B01865E9E4FFC0180818093BE
:10049000C600CACF1092C50083E08093C40088E4F0
:1004A0008093C1008EE08093C200E0910B01F09137
:1004B0000C01E65EFE4F80818093C6008FEF9FEFB8
:1004C000CFCF1F920F920FB60F9211242F933F930D
:1004D0004F935F936F937F938F939F93AF93BF934C
:1004E000EF93FF930E94EA01FF91EF91BF91AF91CB
:1004F0009F918F917F916F915F914F913F912F913C
:100500000F900FBE0F901F9018951F920F920FB66D
:100510000F9211242F938F939F93AF93BF93EF93D9
:10052000FF932091C0008091C60090910D01913001
:1005300079F482E080930D01FF91EF91BF91AF912B
:100540009F918F912F910F900FBE0F901F90189534
:1005500024FF1FC083E080930D018AE191E0909316
:100560000A018093090180910D01853029F780915E
:100570001001909111010397E1F61092C50083E0FC
:100580008093C40080E18093C10086E08093C20024
:10059000D3CF9330F1F4811132C084E080930D0108
:1005A0002FB7F8948091120190911301A09114013A
:1005B000B09115012FBF8093160190931701A0935E
:1005C0001801B09319018091090190910A010196D7
:1005D000C6CF943041F6E0910901F0910A01908173
:1005E000891380833196F0930A01E0930901809189
:1005F0000701909108018E179F0708F09DCF85E0B5
:1006000080930D01B0CF789484B5826084BD84B5A9
:10061000816084BD85B5826085BD85B5816085BDFD
:1006200080916E00816080936E00109281008091B5
:10063000810082608093810080918100816080933D
:100640008100809180008160809380008091B10062
:1006500084608093B1008091B00081608093B0008D
:1006600080917A00846080937A0080917A00826021
:1006700080937A0080917A00816080937A008091E3
:100680007A00806880937A001092C1001092110164
:100690001092100182E090E090930F0180930E0180
:1006A00081E080930D0110920C0110920B018AE100
:1006B00091E090930A01809309012FB7F8948091FB
:1006C000120190911301A0911401B09115012FBF57
:1006D0008093160190931701A0931801B09319010C
:1006E00080E092E0909301018093000180910001ED
:1006F00090910101865E9E4F9093080180930701BF
:10070000EAE1F1E0119223E0EB31F207D9F782E060
:1007100090E090931101809310011092C000C0915D
:100720000E0161E08C2F0E94000160E08C2F0E947E
:10073000D20080911001909111018130910509F052
:1007400003C161E08C2F0E94D20080E290E0909380
:100750000101809300011092C50089E08093C400DC
:1007600088E48093C1008EE28093C2001092C6009C
:1007700061E08BE00E94000161E08AE00E940001DC
:1007800061E089E00E94000161E086E00E940001D2
:1007900061E085E00E94000161E083E00E940001C9
:1007A00062E08EE00E94000162E08FE00E940001A2
:1007B00062E080E10E94000162E081E10E940001AC
:1007C00062E082E10E94000162E083E10E94000198
:1007D00062E084E10E94000162E085E10E94000184
:1007E00084E10E948E018C0185E10E948E01EC0162
:1007F0008EE00E94A90020911B03892B09F0C2C042
:10080000216020931B038FE00E94A90020911B030D
:10081000892B09F0B9C0226020931B0380E10E945C
:10082000A90020911B03892B09F0B0C024602093FC
:100830001B0381E10E94A90020911B03892B09F071
:10084000A7C0286020931B0382E10E94A900209189
:100850001B03892B09F09EC0206120931B0383E1B9
:100860000E94A90020911B03892B09F095C02062EA
:1008700020931B0380911B03053611050CF08EC0DD
:10088000806480931B0380911B03C536D1050CF057
:1008900087C0806880931B0380911B03811103C074
:1008A00081E080931B0300E010E02FB7F894809163
:1008B000120190911301A0911401B09115012FBF65
:1008C0004091160150911701609118017091190122
:1008D000841B950BA60BB70B8C3D9540A105B1056C
:1008E00008F060C0C0911B03D0E081E090E0209749
:1008F00009F0CE01865E9E4FFC01608170E08BE0C6
:100900000E943101C65EDE4F698170E08AE00E947C
:1009100031016A8170E089E00E9431016B8170E0F1
:1009200086E00E9431016C8170E085E00E94310117
:100930006D8170E083E00E9431010115110509F419
:10094000B4CF0E940000B1CF029709F011CF8AE125
:1009500091E090930A018093090181E080930D0159
:100960001092C50083E08093C40080E98093C100A9
:1009700086E08093C2008091C00087FFF9CE80910D
:10098000C600F9CF2E7F3DCF2D7F46CF2B7F4FCF97
:10099000277F58CF2F7E61CF2F7D6ACF8F7B71CF7E
:1009A0008F7778CF6FEF70E08BE00E94310170E0BD
:1009B00060E08AE00E94310170E060E089E00E941E
:1009C00031016FEF70E086E00E94310170E060E07D
:1009D00085E00E94310170E060E0ACCFF894FFCF79
:0209E0002000F5
:107E0000112484B714BE81FFF0D085E080938100F7
:107E100082E08093C00088E18093C10086E0809377
:107E2000C20080E18093C4008EE0C9D0259A86E02C
:107E300020E33CEF91E0309385002093840096BBD3
:107E4000B09BFECF1D9AA8958150A9F7CC24DD24C4
:107E500088248394B5E0AB2EA1E19A2EF3E0BF2EE7
:107E6000A2D0813461F49FD0082FAFD0023811F036
:107E7000013811F484E001C083E08DD089C08234E0
:107E800011F484E103C0853419F485E0A6D080C0E4
:107E9000853579F488D0E82EFF2485D0082F10E0AE
:107EA000102F00270E291F29000F111F8ED06801E7
:107EB0006FC0863521F484E090D080E0DECF843638
:107EC00009F040C070D06FD0082F6DD080E0C81688
:107ED00080E7D80618F4F601B7BEE895C0E0D1E017
:107EE00062D089930C17E1F7F0E0CF16F0E7DF06D8
:107EF00018F0F601B7BEE89568D007B600FCFDCFD4
:107F0000A601A0E0B1E02C9130E011968C91119780
:107F100090E0982F8827822B932B1296FA010C0160
:107F200087BEE89511244E5F5F4FF1E0A038BF0790
:107F300051F7F601A7BEE89507B600FCFDCF97BE46
:107F4000E89526C08437B1F42ED02DD0F82E2BD052
:107F50003CD0F601EF2C8F010F5F1F4F84911BD097
:107F6000EA94F801C1F70894C11CD11CFA94CF0C13
:107F7000D11C0EC0853739F428D08EE10CD085E9AC
:107F80000AD08FE07ACF813511F488E018D01DD067
:107F900080E101D065CF982F8091C00085FFFCCF94
:107FA0009093C60008958091C00087FFFCCF809118
:107FB000C00084FD01C0A8958091C6000895E0E648
:107FC000F0E098E1908380830895EDDF803219F02E
:107FD00088E0F5DFFFCF84E1DECF1F93182FE3DFCA
:107FE0001150E9F7F2DF1F91089580E0E8DFEE27F6
:047FF000FF270994CA
:027FFE00040479
:00000001FF
