:100000000C945D000C9485000C9485000C94850084
:100010000C9485000C9485000C9485000C9485004C
:100020000C9485000C9485000C9485000C9485003C
:100030000C9485000C9485000C9485000C9485002C
:100040000C94E9020C9485000C94B7020C94910274
:100050000C9485000C9485000C9485000C9485000C
:100060000C9485000C9485000000000024002700FB
:100070002A0000000000250028002B0004040404CE
:100080000404040402020202020203030303030342
:10009000010204081020408001020408102001021F
:1000A00004081020000000080002010000030407FB
:1000B0000000000000000000E70511241FBECFEF84
:1000C000D8E0DEBFCDBF11E0A0E0B1E0E6EEFCE09D
:1000D00002C005900D92AC31B107D9F721E0ACE137
:1000E000B1E001C01D92AB3CB207E1F710E0CDE5F5
:1000F000D0E004C02197FE010E946B06CC35D107E9
:10010000C9F70E9433030C9471060C94000080E43C
:1001100080937C0080917A00806480937A00809143
:100120007A0086FDFCCF8091780090917900089547
:100130008230910538F0880F991F880F991F059715
:100140000197F1F70895AF92BF92CF92DF92EF92AD
:10015000FF920F931F93CF93DF936C017B018B0171
:10016000040F151FEB015E01AE18BF08C017D107C1
:1001700059F06991D601ED91FC910190F081E02D4B
:10018000C6010995892B79F7C501DF91CF911F91A0
:100190000F91FF90EF90DF90CF90BF90AF900895B8
:1001A000FC01538D448D252F30E0842F90E0821B7D
:1001B000930B541710F0CF96089501970895FC0102
:1001C000918D828D981761F0A28DAE0FBF2FB11D5A
:1001D0005D968C91928D9F5F9F73928F90E00895B2
:1001E0008FEF9FEF0895FC01918D828D981731F06C
:1001F000828DE80FF11D858D90E008958FEF9FEFC0
:100200000895FC01918D228D892F90E0805C9F4F95
:10021000821B91098F73992708958EE291E00E94C5
:10022000010121E0892B09F420E0822F089580E06C
:1002300090E0892B29F00E940D0181110C9400009F
:100240000895FC01A48DA80FB92FB11DA35ABF4F6B
:100250002C91848D90E001968F739927848FA689C5
:10026000B7892C93A089B1898C91837080648C9319
:10027000938D848D981306C00288F389E02D8081C8
:100280008F7D80830895EF92FF920F931F93CF93FA
:10029000DF93EC0181E0888F9B8D8C8D98131AC0C1
:1002A000E889F989808185FF15C09FB7F894EE89A8
:1002B000FF896083E889F989808183708064808305
:1002C0009FBF81E090E0DF91CF911F910F91FF9050
:1002D000EF900895F62E0B8D10E00F5F1F4F0F73F8
:1002E0001127E02E8C8D8E110CC00FB607FCFACFB3
:1002F000E889F989808185FFF5CFCE010E9421012F
:10030000F1CFEB8DEC0FFD2FF11DE35AFF4FF08283
:100310009FB7F8940B8FEA89FB8980818062CFCFE9
:10032000CF93DF93EC01888D8823B9F0AA89BB892C
:10033000E889F9898C9185FD03C0808186FD0DC017
:100340000FB607FCF7CF8C9185FFF2CF808185FF38
:10035000EDCFCE010E942101E9CFDF91CF91089529
:1003600090E0FC01EC55FF4F2491FC01E057FF4F5A
:100370003491FC01E458FF4FE491EE23C9F02223AD
:1003800039F0233001F1A8F4213019F1223029F19C
:10039000F0E0EE0FFF1FEE58FF4FA591B4918FB71D
:1003A000F894EC91611126C030953E233C938FBFA9
:1003B00008952730A9F02830C9F0243049F78091FA
:1003C00080008F7D03C0809180008F7780938000B4
:1003D000DFCF84B58F7784BDDBCF84B58F7DFBCF36
:1003E0008091B0008F778093B000D2CF8091B00021
:1003F0008F7DF9CF3E2BDACFCF93DF9390E0FC01D6
:10040000E057FF4F249184589F4FFC01849188232B
:10041000D1F090E0880F991FFC01E859FF4FA5919A
:10042000B491FC01EE58FF4FC591D49161110EC0FB
:100430009FB7F8948C91E22FE0958E238C932881BE
:10044000E223E8839FBFDF91CF9108958FB7F8949F
:10045000EC91E22BEC938FBFF6CF3FB7F8948091ED
:10046000210190912201A0912301B091240126B590
:10047000A89B05C02F3F19F00196A11DB11D3FBFDC
:10048000BA2FA92F982F8827BC01CD01620F711DAB
:10049000811D911D42E0660F771F881F991F4A95A5
:1004A000D1F708958F929F92AF92BF92CF92DF9231
:1004B000EF92FF924B015C010E942D026B017C01C7
:1004C0000E942D026C197D098E099F09683E7340B8
:1004D00081059105A8F321E0821A9108A108B108CD
:1004E00088EEC80E83E0D81EE11CF11C8114910433
:1004F000A104B10429F7FF90EF90DF90CF90BF9057
:10050000AF909F908F900895FC0101900020E9F733
:100510003197AF01481B590BBC018EE291E00C945E
:10052000A3001F920F920FB60F9211242F933F93A7
:100530004F935F936F937F938F939F93AF93BF93EB
:10054000EF93FF938EE291E00E942101FF91EF91E2
:10055000BF91AF919F918F917F916F915F914F91DB
:100560003F912F910F900FBE0F901F9018951F92E3
:100570000F920FB60F9211242F938F939F93EF93A7
:10058000FF93E0913E01F0913F018081E0914401B1
:10059000F091450182FD1BC09081809147018F5FE2
:1005A0008F7320914801821741F0E0914701F0E0FC
:1005B000E25DFE4F958F80934701FF91EF919F91F0
:1005C0008F912F910F900FBE0F901F9018958081E3
:1005D000F4CF1F920F920FB60F9211242F933F93D7
:1005E0008F939F93AF93BF9380911D0190911E01B4
:1005F000A0911F01B091200130911C0123E0230F35
:100600002D3758F50196A11DB11D20931C01809333
:100610001D0190931E01A0931F01B09320018091B2
:10062000210190912201A0912301B0912401019612
:10063000A11DB11D8093210190932201A09323015C
:10064000B0932401BF91AF919F918F913F912F91D2
:100650000F900FBE0F901F90189526E8230F02965B
:10066000A11DB11DD2CF789484B5826084BD84B5BC
:10067000816084BD85B5826085BD85B5816085BD9D
:1006800080916E00816080936E0010928100809155
:1006900081008260809381008091810081608093DD
:1006A0008100809180008160809380008091B10002
:1006B00084608093B1008091B00081608093B0002D
:1006C00080917A00846080937A0080917A008260C1
:1006D00080937A0080917A00816080937A00809183
:1006E0007A00806880937A001092C100E0913E0108
:1006F000F0913F0182E08083E0913A01F0913B016B
:100700001082E0913C01F0913D0180E180831092E4
:100710004601E0914201F091430186E08083E0913F
:100720004001F0914101808180618083E09140012E
:10073000F0914101808188608083E0914001F091D7
:100740004101808180688083E0914001F091410106
:1007500080818F7D8083C0E061E08C2F0E94FC014E
:10076000CF5FCD30C9F761E08CE00E94FC0161E011
:100770008DE00E94FC0160E08EE00E94FC0160E0E0
:100780008FE00E94FC01CC24CA9483E0D82EE12C97
:10079000F12CCBE4D0E000E010E061E08CE00E94BE
:1007A000B00165E070E080E090E00E94520260E0FD
:1007B0008CE00E94B00110922D0110922C0160E09B
:1007C0008DE00E94B00183E290E00E9498000E94B8
:1007D00087002FEF30E0DC010E946406A70196013C
:1007E0000E941406293108F4C8C120932B0161E04E
:1007F0008DE00E94B001CE010197F1F790902B019E
:10080000A92CB12CB0922D01A0922C0160E08DE0BA
:100810000E94B00183E290E00E9498000E9487004D
:100820002FEF30E0DC010E946406A70196010E94D0
:100830001406273308F4A4C120932A0161E08DE057
:100840000E94B001CE010197F1F780912A01A80E14
:10085000B11CB0922D01A0922C0160E08DE00E94AD
:10086000B00183E290E00E9498000E9487002FEF81
:1008700030E0DC010E946406A70196010E94140684
:100880002C3308F480C12093290161E08DE00E949F
:10089000B001CE010197F1F780912901A80EB11C9A
:1008A000B0922D01A0922C0160E08DE00E94B00179
:1008B00083E290E00E9498000E9487002FEF30E0D2
:1008C000DC010E946406A70196010E9414062C33E5
:1008D00008F45CC12093280161E08DE00E94B00122
:1008E000CE010197F1F780912801A80EB11CB092BA
:1008F0002D01A0922C0160E08DE00E94B00183E206
:1009000090E00E9498000E9487002FEF30E0DC0109
:100910000E946406A70196010E941406273308F47A
:1009200038C12093270161E08DE00E94B001CE0123
:100930000197F1F780912701A80EB11CB0922D010B
:10094000A0922C0160E08DE00E94B00183E290E073
:100950000E9498000E9487002FEF30E0DC010E9487
:100960006406A70196010E9414062C3308F414C1F2
:100970002093260161E08DE00E94B001CE01019735
:10098000F1F780912601A80EB11CB0922D01A09222
:100990002C0160E08DE00E94B00183E290E00E94B3
:1009A00098000E9487002FEF30E0DC010E9464066F
:1009B000A70196010E941406273308F4F0C0209383
:1009C0002501809125018A0D9B2D911D90932D016C
:1009D00080932C0102970CF476C084EB891508F003
:1009E000E1C061E08BE00E94B00182E191E00E94F1
:1009F000840284E191E00E94840280912A01853B77
:100A000008F4D3C061E08AE00E94B00182E191E085
:100A10000E94840284E191E00E9484028091290175
:100A2000853B08F4C5C061E089E00E94B00182E125
:100A300091E00E94840284E191E00E94840280910E
:100A40002801853B08F4B7C061E088E00E94B0014E
:100A500082E191E00E94840284E191E00E9484029C
:100A600080912701853B08F4A9C061E087E00E94DE
:100A7000B00182E191E00E94840284E191E00E9451
:100A8000840280912601853B08F49BC061E086E0EA
:100A90000E94B00182E191E00E94840284E191E031
:100AA0000E94840280912501833308F48DC061E0A7
:100AB00085E00E94B00182E191E00E94840284E11D
:100AC00091E00E94840261E08DE00E94B0016EE13D
:100AD00070E080E090E00E94520280912B018F3AFA
:100AE00020F460E08BE00E94B00180912A018F3AEF
:100AF00020F460E08AE00E94B001809129018F3AE1
:100B000020F460E089E00E94B001809128018F3AD2
:100B100020F460E088E00E94B001809127018F3AC4
:100B200020F460E087E00E94B001809126018F3AB6
:100B300020F460E086E00E94B001809125018F3AA8
:100B400020F460E085E00E94B00110922D01109227
:100B50002C0142E050E068E171E08EE291E00E94F9
:100B6000A3000115110509F418CE0E940D01882378
:100B700009F413CE0E94000010CE10922B0137CE44
:100B800010922A015BCE109229017FCE109228018B
:100B9000A3CE10922701C7CE10922601EBCE109261
:100BA00025010FCF86E191E022CF86E191E030CFA1
:100BB00086E191E03ECF86E191E04CCF86E191E085
:100BC0005ACF86E191E068CF86E191E076CFEEE200
:100BD000F1E01382128288EE93E0A0E0B0E084831B
:100BE0009583A683B78384E091E09183808385EC2D
:100BF00090E09587848784EC90E09787868780ECE7
:100C000090E0918B808B81EC90E0938B828B82ECD7
:100C100090E0958B848B86EC90E0978B868B118E81
:100C2000128E138E148E0895052E97FB1EF40094D9
:100C30000E942B0657FD07D00E94330607FC03D005
:100C40004EF40C942B0650954095309521953F4FCE
:100C50004F4F5F4F089590958095709561957F4FA8
:100C60008F4F9F4F0895A1E21A2EAA1BBB1BFD01B7
:100C70000DC0AA1FBB1FEE1FFF1FA217B307E4077B
:100C8000F50720F0A21BB30BE40BF50B661F771FD3
:100C9000881F991F1A9469F76095709580959095B3
:100CA0009B01AC01BD01CF010895A29FB001B39F8C
:100CB000C001A39F700D811D1124911DB29F700D65
:100CC000811D1124911D08950E945506B7FF0895B6
:100CD000821B930B0895EE0FFF1F0590F491E02DFA
:060CE0000994F894FFCF17
:100CE600000000004301A300D00090010101DF00D5
:0C0CF600F300580020005F000D0A000011
:00000001FF
